{"contracts/HarmonicGate.sol":{"HarmonicGate":{"abi":[{"inputs":[{"internalType":"enum HarmonicGate.Grade","name":"grade","type":"uint8"},{"internalType":"uint256","name":"stake","type":"uint256"}],"name":"validate","outputs":[{"internalType":"bool","name":"","type":"bool"}],"stateMutability":"pure","type":"function"}],"evm":{"bytecode":{"linkReferences":{},"object":"608060405234801561001057600080fd5b506102fb806100206000396000f3fe608060405234801561001057600080fd5b506004361061002b5760003560e01c80630fe01d7714610030575b600080fd5b61004a60048036038101906100459190610220565b610060565b604051610057919061027b565b60405180910390f35b600080600481111561007557610074610296565b5b83600481111561008857610087610296565b5b0361009657600190506101ba565b600160048111156100aa576100a9610296565b5b8360048111156100bd576100bc610296565b5b1480156100ca5750600082115b156100d857600190506101ba565b600260048111156100ec576100eb610296565b5b8360048111156100ff576100fe610296565b5b1480156101145750670de0b6b3a76400008210155b1561012257600190506101ba565b6003600481111561013657610135610296565b5b83600481111561014957610148610296565b5b14801561015e5750674563918244f400008210155b1561016c57600190506101ba565b60048081111561017f5761017e610296565b5b83600481111561019257610191610296565b5b1480156101a75750678ac7230489e800008210155b156101b557600190506101ba565b600090505b92915050565b600080fd5b600581106101d257600080fd5b50565b6000813590506101e4816101c5565b92915050565b6000819050919050565b6101fd816101ea565b811461020857600080fd5b50565b60008135905061021a816101f4565b92915050565b60008060408385031215610237576102366101c0565b5b6000610245858286016101d5565b92505060206102568582860161020b565b9150509250929050565b60008115159050919050565b61027581610260565b82525050565b6000602082019050610290600083018461026c565b92915050565b7f4e487b7100000000000000000000000000000000000000000000000000000000600052602160045260246000fdfea26469706673582212201c8e6f94f88d61ebf2a6a22d1eba9eaeb814e74d57212aecda62e411c0b0619664736f6c63430008140033","opcodes":"PUSH1 0x80 PUSH1 0x40 MSTORE CALLVALUE DUP1 ISZERO PUSH2 0x10 JUMPI PUSH1 0x0 DUP1 REVERT JUMPDEST POP PUSH2 0x2FB DUP1 PUSH2 0x20 PUSH1 0x0 CODECOPY PUSH1 0x0 RETURN INVALID PUSH1 0x80 PUSH1 0x40 MSTORE CALLVALUE DUP1 ISZERO PUSH2 0x10 JUMPI PUSH1 0x0 DUP1 REVERT JUMPDEST POP PUSH1 0x4 CALLDATASIZE LT PUSH2 0x2B JUMPI PUSH1 0x0 CALLDATALOAD PUSH1 0xE0 SHR DUP1 PUSH4 0xFE01D77 EQ PUSH2 0x30 JUMPI JUMPDEST PUSH1 0x0 DUP1 REVERT JUMPDEST PUSH2 0x4A PUSH1 0x4 DUP1 CALLDATASIZE SUB DUP2 ADD SWAP1 PUSH2 0x45 SWAP2 SWAP1 PUSH2 0x220 JUMP JUMPDEST PUSH2 0x60 JUMP JUMPDEST PUSH1 0x40 MLOAD PUSH2 0x57 SWAP2 SWAP1 PUSH2 0x27B JUMP JUMPDEST PUSH1 0x40 MLOAD DUP1 SWAP2 SUB SWAP1 RETURN JUMPDEST PUSH1 0x0 DUP1 PUSH1 0x4 DUP2 GT ISZERO PUSH2 0x75 JUMPI PUSH2 0x74 PUSH2 0x296 JUMP JUMPDEST JUMPDEST DUP4 PUSH1 0x4 DUP2 GT ISZERO PUSH2 0x88 JUMPI PUSH2 0x87 PUSH2 0x296 JUMP JUMPDEST JUMPDEST SUB PUSH2 0x96 JUMPI PUSH1 0x1 SWAP1 POP PUSH2 0x1BA JUMP JUMPDEST PUSH1 0x1 PUSH1 0x4 DUP2 GT ISZERO PUSH2 0xAA JUMPI PUSH2 0xA9 PUSH2 0x296 JUMP JUMPDEST JUMPDEST DUP4 PUSH1 0x4 DUP2 GT ISZERO PUSH2 0xBD JUMPI PUSH2 0xBC PUSH2 0x296 JUMP JUMPDEST JUMPDEST EQ DUP1 ISZERO PUSH2 0xCA JUMPI POP PUSH1 0x0 DUP3 GT JUMPDEST ISZERO PUSH2 0xD8 JUMPI PUSH1 0x1 SWAP1 POP PUSH2 0x1BA JUMP JUMPDEST PUSH1 0x2 PUSH1 0x4 DUP2 GT ISZERO PUSH2 0xEC JUMPI PUSH2 0xEB PUSH2 0x296 JUMP JUMPDEST JUMPDEST DUP4 PUSH1 0x4 DUP2 GT ISZERO PUSH2 0xFF JUMPI PUSH2 0xFE PUSH2 0x296 JUMP JUMPDEST JUMPDEST EQ DUP1 ISZERO PUSH2 0x114 JUMPI POP PUSH8 0xDE0B6B3A7640000 DUP3 LT ISZERO JUMPDEST ISZERO PUSH2 0x122 JUMPI PUSH1 0x1 SWAP1 POP PUSH2 0x1BA JUMP JUMPDEST PUSH1 0x3 PUSH1 0x4 DUP2 GT ISZERO PUSH2 0x136 JUMPI PUSH2 0x135 PUSH2 0x296 JUMP JUMPDEST JUMPDEST DUP4 PUSH1 0x4 DUP2 GT ISZERO PUSH2 0x149 JUMPI PUSH2 0x148 PUSH2 0x296 JUMP JUMPDEST JUMPDEST EQ DUP1 ISZERO PUSH2 0x15E JUMPI POP PUSH8 0x4563918244F40000 DUP3 LT ISZERO JUMPDEST ISZERO PUSH2 0x16C JUMPI PUSH1 0x1 SWAP1 POP PUSH2 0x1BA JUMP JUMPDEST PUSH1 0x4 DUP1 DUP2 GT ISZERO PUSH2 0x17F JUMPI PUSH2 0x17E PUSH2 0x296 JUMP JUMPDEST JUMPDEST DUP4 PUSH1 0x4 DUP2 GT ISZERO PUSH2 0x192 JUMPI PUSH2 0x191 PUSH2 0x296 JUMP JUMPDEST JUMPDEST EQ DUP1 ISZERO PUSH2 0x1A7 JUMPI POP PUSH8 0x8AC7230489E80000 DUP3 LT ISZERO JUMPDEST ISZERO PUSH2 0x1B5 JUMPI PUSH1 0x1 SWAP1 POP PUSH2 0x1BA JUMP JUMPDEST PUSH1 0x0 SWAP1 POP JUMPDEST SWAP3 SWAP2 POP POP JUMP JUMPDEST PUSH1 0x0 DUP1 REVERT JUMPDEST PUSH1 0x5 DUP2 LT PUSH2 0x1D2 JUMPI PUSH1 0x0 DUP1 REVERT JUMPDEST POP JUMP JUMPDEST PUSH1 0x0 DUP2 CALLDATALOAD SWAP1 POP PUSH2 0x1E4 DUP2 PUSH2 0x1C5 JUMP JUMPDEST SWAP3 SWAP2 POP POP JUMP JUMPDEST PUSH1 0x0 DUP2 SWAP1 POP SWAP2 SWAP1 POP JUMP JUMPDEST PUSH2 0x1FD DUP2 PUSH2 0x1EA JUMP JUMPDEST DUP2 EQ PUSH2 0x208 JUMPI PUSH1 0x0 DUP1 REVERT JUMPDEST POP JUMP JUMPDEST PUSH1 0x0 DUP2 CALLDATALOAD SWAP1 POP PUSH2 0x21A DUP2 PUSH2 0x1F4 JUMP JUMPDEST SWAP3 SWAP2 POP POP JUMP JUMPDEST PUSH1 0x0 DUP1 PUSH1 0x40 DUP4 DUP6 SUB SLT ISZERO PUSH2 0x237 JUMPI PUSH2 0x236 PUSH2 0x1C0 JUMP JUMPDEST JUMPDEST PUSH1 0x0 PUSH2 0x245 DUP6 DUP3 DUP7 ADD PUSH2 0x1D5 JUMP JUMPDEST SWAP3 POP POP PUSH1 0x20 PUSH2 0x256 DUP6 DUP3 DUP7 ADD PUSH2 0x20B JUMP JUMPDEST SWAP2 POP POP SWAP3 POP SWAP3 SWAP1 POP JUMP JUMPDEST PUSH1 0x0 DUP2 ISZERO ISZERO SWAP1 POP SWAP2 SWAP1 POP JUMP JUMPDEST PUSH2 0x275 DUP2 PUSH2 0x260 JUMP JUMPDEST DUP3 MSTORE POP POP JUMP JUMPDEST PUSH1 0x0 PUSH1 0x20 DUP3 ADD SWAP1 POP PUSH2 0x290 PUSH1 0x0 DUP4 ADD DUP5 PUSH2 0x26C JUMP JUMPDEST SWAP3 SWAP2 POP POP JUMP JUMPDEST PUSH32 0x4E487B7100000000000000000000000000000000000000000000000000000000 PUSH1 0x0 MSTORE PUSH1 0x21 PUSH1 0x4 MSTORE PUSH1 0x24 PUSH1 0x0 REVERT INVALID LOG2 PUSH5 0x6970667358 0x22 SLT KECCAK256 SHR DUP15 PUSH16 0x94F88D61EBF2A6A22D1EBA9EAEB814E7 0x4D JUMPI 0x21 0x2A 0xEC 0xDA PUSH3 0xE411C0 0xB0 PUSH2 0x9664 PUSH20 0x6F6C634300081400330000000000000000000000 "},"methodIdentifiers":{"validate(uint8,uint256)":"0fe01d77"}}}}}