{
  "_format": "hh-sol-artifact-1",
  "contractName": "ReputationEngine",
  "sourceName": "contracts/ReputationEngine.sol",
  "abi": [
    {
      "inputs": [
        {
          "internalType": "address",
          "name": "",
          "type": "address"
        }
      ],
      "name": "nodes",
      "outputs": [
        {
          "internalType": "uint256",
          "name": "success",
          "type": "uint256"
        },
        {
          "internalType": "uint256",
          "name": "failure",
          "type": "uint256"
        }
      ],
      "stateMutability": "view",
      "type": "function"
    },
    {
      "inputs": [
        {
          "internalType": "address",
          "name": "user",
          "type": "address"
        }
      ],
      "name": "reputation",
      "outputs": [
        {
          "internalType": "uint256",
          "name": "",
          "type": "uint256"
        }
      ],
      "stateMutability": "view",
      "type": "function"
    },
    {
      "inputs": [
        {
          "internalType": "address",
          "name": "user",
          "type": "address"
        }
      ],
      "name": "success",
      "outputs": [],
      "stateMutability": "nonpayable",
      "type": "function"
    }
  ],
  "bytecode": "0x608060405234801561001057600080fd5b50610464806100206000396000f3fe608060405234801561001057600080fd5b50600436106100415760003560e01c8063189a5a171461004657806326e4baae14610077578063b9f7945114610093575b600080fd5b610060600480360381019061005b9190610257565b6100c3565b60405161006e92919061029d565b60405180910390f35b610091600480360381019061008c9190610257565b6100e7565b005b6100ad60048036038101906100a89190610257565b610141565b6040516100ba91906102c6565b60405180910390f35b60006020528060005260406000206000915090508060000154908060010154905082565b6000808273ffffffffffffffffffffffffffffffffffffffff1673ffffffffffffffffffffffffffffffffffffffff168152602001908152602001600020600001600081548092919061013990610310565b919050555050565b6000806000808473ffffffffffffffffffffffffffffffffffffffff1673ffffffffffffffffffffffffffffffffffffffff1681526020019081526020016000206040518060400160405290816000820154815260200160018201548152505090506000816020015182600001516101b99190610358565b9050600081036101ce576000925050506101ef565b80606483600001516101e0919061038c565b6101ea91906103fd565b925050505b919050565b600080fd5b600073ffffffffffffffffffffffffffffffffffffffff82169050919050565b6000610224826101f9565b9050919050565b61023481610219565b811461023f57600080fd5b50565b6000813590506102518161022b565b92915050565b60006020828403121561026d5761026c6101f4565b5b600061027b84828501610242565b91505092915050565b6000819050919050565b61029781610284565b82525050565b60006040820190506102b2600083018561028e565b6102bf602083018461028e565b9392505050565b60006020820190506102db600083018461028e565b92915050565b7f4e487b7100000000000000000000000000000000000000000000000000000000600052601160045260246000fd5b600061031b82610284565b91507fffffffffffffffffffffffffffffffffffffffffffffffffffffffffffffffff820361034d5761034c6102e1565b5b600182019050919050565b600061036382610284565b915061036e83610284565b9250828201905080821115610386576103856102e1565b5b92915050565b600061039782610284565b91506103a283610284565b92508282026103b081610284565b915082820484148315176103c7576103c66102e1565b5b5092915050565b7f4e487b7100000000000000000000000000000000000000000000000000000000600052601260045260246000fd5b600061040882610284565b915061041383610284565b925082610423576104226103ce565b5b82820490509291505056fea26469706673582212205f321252f0ce0f0dfb356d3b0bffcfe0686172de816993001e45a9793abf938864736f6c63430008140033",
  "linkReferences": {},
  "deployedLinkReferences": {}
}