{
  "_format": "hh-sol-artifact-1",
  "contractName": "StakeManager",
  "sourceName": "contracts/StakeManager.sol",
  "abi": [
    {
      "inputs": [],
      "name": "LOCK_PERIOD",
      "outputs": [
        {
          "internalType": "uint256",
          "name": "",
          "type": "uint256"
        }
      ],
      "stateMutability": "view",
      "type": "function"
    },
    {
      "inputs": [],
      "name": "stake",
      "outputs": [],
      "stateMutability": "payable",
      "type": "function"
    },
    {
      "inputs": [
        {
          "internalType": "address",
          "name": "",
          "type": "address"
        }
      ],
      "name": "stakes",
      "outputs": [
        {
          "internalType": "uint256",
          "name": "amount",
          "type": "uint256"
        },
        {
          "internalType": "uint256",
          "name": "unlockTime",
          "type": "uint256"
        }
      ],
      "stateMutability": "view",
      "type": "function"
    },
    {
      "inputs": [],
      "name": "withdraw",
      "outputs": [],
      "stateMutability": "nonpayable",
      "type": "function"
    }
  ],
  "bytecode": "0x608060405234801561001057600080fd5b50610580806100206000396000f3fe60806040526004361061003f5760003560e01c806316934fc4146100445780631820cabb146100825780633a4b66f1146100ad5780633ccfd60b146100b7575b600080fd5b34801561005057600080fd5b5061006b60048036038101906100669190610374565b6100ce565b6040516100799291906103ba565b60405180910390f35b34801561008e57600080fd5b506100976100f2565b6040516100a491906103e3565b60405180910390f35b6100b56100f9565b005b3480156100c357600080fd5b506100cc6101b6565b005b60006020528060005260406000206000915090508060000154908060010154905082565b62278d0081565b6000341161013c576040517f08c379a00000000000000000000000000000000000000000000000000000000081526004016101339061045b565b60405180910390fd5b604051806040016040528034815260200162278d004261015c91906104aa565b8152506000803373ffffffffffffffffffffffffffffffffffffffff1673ffffffffffffffffffffffffffffffffffffffff1681526020019081526020016000206000820151816000015560208201518160010155905050565b6000803373ffffffffffffffffffffffffffffffffffffffff1673ffffffffffffffffffffffffffffffffffffffff1681526020019081526020016000206001015442101561023a576040517f08c379a00000000000000000000000000000000000000000000000000000000081526004016102319061052a565b60405180910390fd5b60008060003373ffffffffffffffffffffffffffffffffffffffff1673ffffffffffffffffffffffffffffffffffffffff16815260200190815260200160002060000154905060008060003373ffffffffffffffffffffffffffffffffffffffff1673ffffffffffffffffffffffffffffffffffffffff168152602001908152602001600020600001819055503373ffffffffffffffffffffffffffffffffffffffff166108fc829081150290604051600060405180830381858888f1935050505015801561030d573d6000803e3d6000fd5b5050565b600080fd5b600073ffffffffffffffffffffffffffffffffffffffff82169050919050565b600061034182610316565b9050919050565b61035181610336565b811461035c57600080fd5b50565b60008135905061036e81610348565b92915050565b60006020828403121561038a57610389610311565b5b60006103988482850161035f565b91505092915050565b6000819050919050565b6103b4816103a1565b82525050565b60006040820190506103cf60008301856103ab565b6103dc60208301846103ab565b9392505050565b60006020820190506103f860008301846103ab565b92915050565b600082825260208201905092915050565b7f4e6f207374616b65000000000000000000000000000000000000000000000000600082015250565b60006104456008836103fe565b91506104508261040f565b602082019050919050565b6000602082019050818103600083015261047481610438565b9050919050565b7f4e487b7100000000000000000000000000000000000000000000000000000000600052601160045260246000fd5b60006104b5826103a1565b91506104c0836103a1565b92508282019050808211156104d8576104d761047b565b5b92915050565b7f4c6f636b65640000000000000000000000000000000000000000000000000000600082015250565b60006105146006836103fe565b915061051f826104de565b602082019050919050565b6000602082019050818103600083015261054381610507565b905091905056fea26469706673582212201326c4bf1eaf6197c3ea537407fe229c9dde14020c2c35fce40be2ef2a9e5d9264736f6c63430008140033",
  "linkReferences": {},
  "deployedLinkReferences": {}
}