{
  "_format": "hh-sol-artifact-1",
  "contractName": "HarmonicGate",
  "sourceName": "contracts/HarmonicGate.sol",
  "abi": [
    {
      "inputs": [
        {
          "internalType": "enum HarmonicGate.Grade",
          "name": "grade",
          "type": "uint8"
        },
        {
          "internalType": "uint256",
          "name": "stake",
          "type": "uint256"
        }
      ],
      "name": "validate",
      "outputs": [
        {
          "internalType": "bool",
          "name": "",
          "type": "bool"
        }
      ],
      "stateMutability": "pure",
      "type": "function"
    }
  ],
  "bytecode": "0x608060405234801561001057600080fd5b506102fb806100206000396000f3fe608060405234801561001057600080fd5b506004361061002b5760003560e01c80630fe01d7714610030575b600080fd5b61004a60048036038101906100459190610220565b610060565b604051610057919061027b565b60405180910390f35b600080600481111561007557610074610296565b5b83600481111561008857610087610296565b5b0361009657600190506101ba565b600160048111156100aa576100a9610296565b5b8360048111156100bd576100bc610296565b5b1480156100ca5750600082115b156100d857600190506101ba565b600260048111156100ec576100eb610296565b5b8360048111156100ff576100fe610296565b5b1480156101145750670de0b6b3a76400008210155b1561012257600190506101ba565b6003600481111561013657610135610296565b5b83600481111561014957610148610296565b5b14801561015e5750674563918244f400008210155b1561016c57600190506101ba565b60048081111561017f5761017e610296565b5b83600481111561019257610191610296565b5b1480156101a75750678ac7230489e800008210155b156101b557600190506101ba565b600090505b92915050565b600080fd5b600581106101d257600080fd5b50565b6000813590506101e4816101c5565b92915050565b6000819050919050565b6101fd816101ea565b811461020857600080fd5b50565b60008135905061021a816101f4565b92915050565b60008060408385031215610237576102366101c0565b5b6000610245858286016101d5565b92505060206102568582860161020b565b9150509250929050565b60008115159050919050565b61027581610260565b82525050565b6000602082019050610290600083018461026c565b92915050565b7f4e487b7100000000000000000000000000000000000000000000000000000000600052602160045260246000fdfea26469706673582212201c8e6f94f88d61ebf2a6a22d1eba9eaeb814e74d57212aecda62e411c0b0619664736f6c63430008140033",
  "linkReferences": {},
  "deployedLinkReferences": {}
}