{
  "_format": "hh-sol-artifact-1",
  "contractName": "DSGAgentWalletNode",
  "sourceName": "contracts/DSGAgentWalletNode.sol",
  "abi": [
    {
      "inputs": [
        {
          "internalType": "address",
          "name": "_stake",
          "type": "address"
        },
        {
          "internalType": "address",
          "name": "_gate",
          "type": "address"
        },
        {
          "internalType": "address",
          "name": "_rep",
          "type": "address"
        }
      ],
      "stateMutability": "nonpayable",
      "type": "constructor"
    },
    {
      "inputs": [
        {
          "internalType": "enum HarmonicGate.Grade",
          "name": "grade",
          "type": "uint8"
        }
      ],
      "name": "execute",
      "outputs": [],
      "stateMutability": "nonpayable",
      "type": "function"
    },
    {
      "inputs": [],
      "name": "gate",
      "outputs": [
        {
          "internalType": "contract HarmonicGate",
          "name": "",
          "type": "address"
        }
      ],
      "stateMutability": "view",
      "type": "function"
    },
    {
      "inputs": [],
      "name": "reputation",
      "outputs": [
        {
          "internalType": "contract ReputationEngine",
          "name": "",
          "type": "address"
        }
      ],
      "stateMutability": "view",
      "type": "function"
    },
    {
      "inputs": [],
      "name": "stakeManager",
      "outputs": [
        {
          "internalType": "contract StakeManager",
          "name": "",
          "type": "address"
        }
      ],
      "stateMutability": "view",
      "type": "function"
    }
  ],
  "bytecode": "0x608060405234801561001057600080fd5b506040516108e73803806108e78339818101604052810190610032919061015f565b826000806101000a81548173ffffffffffffffffffffffffffffffffffffffff021916908373ffffffffffffffffffffffffffffffffffffffff16021790555081600160006101000a81548173ffffffffffffffffffffffffffffffffffffffff021916908373ffffffffffffffffffffffffffffffffffffffff16021790555080600260006101000a81548173ffffffffffffffffffffffffffffffffffffffff021916908373ffffffffffffffffffffffffffffffffffffffff1602179055505050506101b2565b600080fd5b600073ffffffffffffffffffffffffffffffffffffffff82169050919050565b600061012c82610101565b9050919050565b61013c81610121565b811461014757600080fd5b50565b60008151905061015981610133565b92915050565b600080600060608486031215610178576101776100fc565b5b60006101868682870161014a565b93505060206101978682870161014a565b92505060406101a88682870161014a565b9150509250925092565b610726806101c16000396000f3fe608060405234801561001057600080fd5b506004361061004c5760003560e01c80637542ff95146100515780637a0ebc881461006f578063c52164c61461008d578063fa646c0f146100ab575b600080fd5b6100596100c7565b60405161006691906103c3565b60405180910390f35b6100776100eb565b60405161008491906103ff565b60405180910390f35b610095610111565b6040516100a2919061043b565b60405180910390f35b6100c560048036038101906100c09190610480565b610137565b005b60008054906101000a900473ffffffffffffffffffffffffffffffffffffffff1681565b600160009054906101000a900473ffffffffffffffffffffffffffffffffffffffff1681565b600260009054906101000a900473ffffffffffffffffffffffffffffffffffffffff1681565b60008060009054906101000a900473ffffffffffffffffffffffffffffffffffffffff1673ffffffffffffffffffffffffffffffffffffffff166316934fc4336040518263ffffffff1660e01b815260040161019391906104ce565b6040805180830381865afa1580156101af573d6000803e3d6000fd5b505050506040513d601f19601f820116820180604052508101906101d3919061051f565b509050600160009054906101000a900473ffffffffffffffffffffffffffffffffffffffff1673ffffffffffffffffffffffffffffffffffffffff16630fe01d7783836040518363ffffffff1660e01b81526004016102339291906105e5565b602060405180830381865afa158015610250573d6000803e3d6000fd5b505050506040513d601f19601f820116820180604052508101906102749190610646565b6102b3576040517f08c379a00000000000000000000000000000000000000000000000000000000081526004016102aa906106d0565b60405180910390fd5b600260009054906101000a900473ffffffffffffffffffffffffffffffffffffffff1673ffffffffffffffffffffffffffffffffffffffff166326e4baae336040518263ffffffff1660e01b815260040161030e91906104ce565b600060405180830381600087803b15801561032857600080fd5b505af115801561033c573d6000803e3d6000fd5b505050505050565b600073ffffffffffffffffffffffffffffffffffffffff82169050919050565b6000819050919050565b600061038961038461037f84610344565b610364565b610344565b9050919050565b600061039b8261036e565b9050919050565b60006103ad82610390565b9050919050565b6103bd816103a2565b82525050565b60006020820190506103d860008301846103b4565b92915050565b60006103e982610390565b9050919050565b6103f9816103de565b82525050565b600060208201905061041460008301846103f0565b92915050565b600061042582610390565b9050919050565b6104358161041a565b82525050565b6000602082019050610450600083018461042c565b92915050565b600080fd5b6005811061046857600080fd5b50565b60008135905061047a8161045b565b92915050565b60006020828403121561049657610495610456565b5b60006104a48482850161046b565b91505092915050565b60006104b882610344565b9050919050565b6104c8816104ad565b82525050565b60006020820190506104e360008301846104bf565b92915050565b6000819050919050565b6104fc816104e9565b811461050757600080fd5b50565b600081519050610519816104f3565b92915050565b6000806040838503121561053657610535610456565b5b60006105448582860161050a565b92505060206105558582860161050a565b9150509250929050565b7f4e487b7100000000000000000000000000000000000000000000000000000000600052602160045260246000fd5b6005811061059f5761059e61055f565b5b50565b60008190506105b08261058e565b919050565b60006105c0826105a2565b9050919050565b6105d0816105b5565b82525050565b6105df816104e9565b82525050565b60006040820190506105fa60008301856105c7565b61060760208301846105d6565b9392505050565b60008115159050919050565b6106238161060e565b811461062e57600080fd5b50565b6000815190506106408161061a565b92915050565b60006020828403121561065c5761065b610456565b5b600061066a84828501610631565b91505092915050565b600082825260208201905092915050565b7f496e76616c696420677261646500000000000000000000000000000000000000600082015250565b60006106ba600d83610673565b91506106c582610684565b602082019050919050565b600060208201905081810360008301526106e9816106ad565b905091905056fea264697066735822122008a4cf164f86539cf7f31f464a5bf921dd4dad300a8ff94a3dcbb09aff0dbb3164736f6c63430008140033",
  "linkReferences": {},
  "deployedLinkReferences": {}
}